{
  "contractName": "IotAuth",
  "abi": [
    {
      "constant": true,
      "inputs": [
        {
          "name": "index",
          "type": "uint256"
        }
      ],
      "name": "getDevice",
      "outputs": [
        {
          "name": "",
          "type": "address"
        }
      ],
      "payable": false,
      "stateMutability": "view",
      "type": "function"
    },
    {
      "constant": true,
      "inputs": [
        {
          "name": "",
          "type": "uint256"
        }
      ],
      "name": "devices",
      "outputs": [
        {
          "name": "",
          "type": "address"
        }
      ],
      "payable": false,
      "stateMutability": "view",
      "type": "function"
    },
    {
      "constant": true,
      "inputs": [
        {
          "name": "device",
          "type": "address"
        },
        {
          "name": "user",
          "type": "address"
        }
      ],
      "name": "hasAccess",
      "outputs": [
        {
          "name": "",
          "type": "bool"
        }
      ],
      "payable": false,
      "stateMutability": "view",
      "type": "function"
    },
    {
      "constant": false,
      "inputs": [
        {
          "name": "user",
          "type": "address"
        },
        {
          "name": "yesVote",
          "type": "bool"
        }
      ],
      "name": "voteAddManager",
      "outputs": [
        {
          "name": "worked",
          "type": "bool"
        }
      ],
      "payable": false,
      "stateMutability": "nonpayable",
      "type": "function"
    },
    {
      "constant": false,
      "inputs": [
        {
          "name": "user",
          "type": "address"
        }
      ],
      "name": "addManager",
      "outputs": [
        {
          "name": "worked",
          "type": "bool"
        }
      ],
      "payable": false,
      "stateMutability": "nonpayable",
      "type": "function"
    },
    {
      "constant": true,
      "inputs": [
        {
          "name": "",
          "type": "address"
        }
      ],
      "name": "voteAddManager",
      "outputs": [
        {
          "name": "manager",
          "type": "address"
        },
        {
          "name": "yesVote",
          "type": "uint256"
        },
        {
          "name": "noVote",
          "type": "uint256"
        },
        {
          "name": "contains",
          "type": "bool"
        }
      ],
      "payable": false,
      "stateMutability": "view",
      "type": "function"
    },
    {
      "constant": true,
      "inputs": [
        {
          "name": "",
          "type": "uint256"
        }
      ],
      "name": "voteAccessM",
      "outputs": [
        {
          "name": "device",
          "type": "address"
        },
        {
          "name": "user",
          "type": "address"
        },
        {
          "name": "accessTime",
          "type": "uint256"
        },
        {
          "name": "yesVote",
          "type": "uint256"
        },
        {
          "name": "noVote",
          "type": "uint256"
        }
      ],
      "payable": false,
      "stateMutability": "view",
      "type": "function"
    },
    {
      "constant": false,
      "inputs": [
        {
          "name": "device",
          "type": "address"
        },
        {
          "name": "accesTime",
          "type": "uint256"
        }
      ],
      "name": "askAccess",
      "outputs": [
        {
          "name": "worked",
          "type": "bool"
        }
      ],
      "payable": false,
      "stateMutability": "nonpayable",
      "type": "function"
    },
    {
      "constant": true,
      "inputs": [],
      "name": "getNbrOfManager",
      "outputs": [
        {
          "name": "",
          "type": "uint256"
        }
      ],
      "payable": false,
      "stateMutability": "view",
      "type": "function"
    },
    {
      "constant": false,
      "inputs": [
        {
          "name": "device",
          "type": "address"
        },
        {
          "name": "user",
          "type": "address"
        },
        {
          "name": "yesVote",
          "type": "bool"
        }
      ],
      "name": "voteAccess",
      "outputs": [
        {
          "name": "worked",
          "type": "bool"
        }
      ],
      "payable": false,
      "stateMutability": "nonpayable",
      "type": "function"
    },
    {
      "constant": false,
      "inputs": [],
      "name": "registerDevice",
      "outputs": [
        {
          "name": "worked",
          "type": "bool"
        }
      ],
      "payable": false,
      "stateMutability": "nonpayable",
      "type": "function"
    },
    {
      "constant": false,
      "inputs": [],
      "name": "refreshTime",
      "outputs": [],
      "payable": false,
      "stateMutability": "nonpayable",
      "type": "function"
    },
    {
      "constant": true,
      "inputs": [],
      "name": "getDevices",
      "outputs": [
        {
          "name": "",
          "type": "address[16]"
        }
      ],
      "payable": false,
      "stateMutability": "view",
      "type": "function"
    },
    {
      "constant": true,
      "inputs": [
        {
          "name": "user",
          "type": "address"
        }
      ],
      "name": "isManager",
      "outputs": [
        {
          "name": "",
          "type": "bool"
        }
      ],
      "payable": false,
      "stateMutability": "view",
      "type": "function"
    }
  ],
  "bytecode": "0x6060604052600060255560006026556000602755341561001e57600080fd5b611b4f8061002d6000396000f3006060604052600436106100d0576000357c0100000000000000000000000000000000000000000000000000000000900463ffffffff16806309f110b1146100d557806310ff8e31146101385780631709ef071461019b57806318268f5a1461020b5780632d06177a146102675780634d199657146102b857806350e80c401461034a57806388661b0b146103f5578063b9ee7f411461044f578063c23e538e14610478578063cb12f386146104f3578063d53dc7ef14610520578063d611d6c814610535578063f3ae241514610586575b600080fd5b34156100e057600080fd5b6100f660048080359060200190919050506105d7565b604051808273ffffffffffffffffffffffffffffffffffffffff1673ffffffffffffffffffffffffffffffffffffffff16815260200191505060405180910390f35b341561014357600080fd5b6101596004808035906020019091905050610611565b604051808273ffffffffffffffffffffffffffffffffffffffff1673ffffffffffffffffffffffffffffffffffffffff16815260200191505060405180910390f35b34156101a657600080fd5b6101f1600480803573ffffffffffffffffffffffffffffffffffffffff1690602001909190803573ffffffffffffffffffffffffffffffffffffffff16906020019091905050610646565b604051808215151515815260200191505060405180910390f35b341561021657600080fd5b61024d600480803573ffffffffffffffffffffffffffffffffffffffff169060200190919080351515906020019091905050610747565b604051808215151515815260200191505060405180910390f35b341561027257600080fd5b61029e600480803573ffffffffffffffffffffffffffffffffffffffff16906020019091905050610b63565b604051808215151515815260200191505060405180910390f35b34156102c357600080fd5b6102ef600480803573ffffffffffffffffffffffffffffffffffffffff16906020019091905050610d6b565b604051808573ffffffffffffffffffffffffffffffffffffffff1673ffffffffffffffffffffffffffffffffffffffff1681526020018481526020018381526020018215151515815260200194505050505060405180910390f35b341561035557600080fd5b61036b6004808035906020019091905050610dc8565b604051808673ffffffffffffffffffffffffffffffffffffffff1673ffffffffffffffffffffffffffffffffffffffff1681526020018573ffffffffffffffffffffffffffffffffffffffff1673ffffffffffffffffffffffffffffffffffffffff1681526020018481526020018381526020018281526020019550505050505060405180910390f35b341561040057600080fd5b610435600480803573ffffffffffffffffffffffffffffffffffffffff16906020019091908035906020019091905050610e3e565b604051808215151515815260200191505060405180910390f35b341561045a57600080fd5b61046261108e565b6040518082815260200191505060405180910390f35b341561048357600080fd5b6104d9600480803573ffffffffffffffffffffffffffffffffffffffff1690602001909190803573ffffffffffffffffffffffffffffffffffffffff169060200190919080351515906020019091905050611098565b604051808215151515815260200191505060405180910390f35b34156104fe57600080fd5b610506611670565b604051808215151515815260200191505060405180910390f35b341561052b57600080fd5b610533611763565b005b341561054057600080fd5b6105486119cc565b6040518082601060200280838360005b83811015610573578082015181840152602081019050610558565b5050505090500191505060405180910390f35b341561059157600080fd5b6105bd600480803573ffffffffffffffffffffffffffffffffffffffff16906020019091905050611a4d565b604051808215151515815260200191505060405180910390f35b60006002826010811015156105e857fe5b0160009054906101000a900473ffffffffffffffffffffffffffffffffffffffff169050919050565b60028160108110151561062057fe5b016000915054906101000a900473ffffffffffffffffffffffffffffffffffffffff1681565b600073__IterableAccess________________________63781bdae8602885856000604051602001526040518463ffffffff167c0100000000000000000000000000000000000000000000000000000000028152600401808481526020018373ffffffffffffffffffffffffffffffffffffffff1673ffffffffffffffffffffffffffffffffffffffff1681526020018273ffffffffffffffffffffffffffffffffffffffff1673ffffffffffffffffffffffffffffffffffffffff168152602001935050505060206040518083038186803b151561072457600080fd5b6102c65a03f4151561073557600080fd5b50505060405180519050905092915050565b6000602260008473ffffffffffffffffffffffffffffffffffffffff1673ffffffffffffffffffffffffffffffffffffffff16815260200190815260200160002060030160009054906101000a900460ff1615156107a85760009050610b5d565b3373ffffffffffffffffffffffffffffffffffffffff16600160003373ffffffffffffffffffffffffffffffffffffffff1673ffffffffffffffffffffffffffffffffffffffff16815260200190815260200160002060009054906101000a900473ffffffffffffffffffffffffffffffffffffffff1673ffffffffffffffffffffffffffffffffffffffff161415156108455760009050610b5d565b81156108a257602260008473ffffffffffffffffffffffffffffffffffffffff1673ffffffffffffffffffffffffffffffffffffffff168152602001908152602001600020600101600081548092919060010191905055506108f5565b602260008473ffffffffffffffffffffffffffffffffffffffff1673ffffffffffffffffffffffffffffffffffffffff168152602001908152602001600020600201600081548092919060010191905055505b600260255481151561090357fe5b04602260008573ffffffffffffffffffffffffffffffffffffffff1673ffffffffffffffffffffffffffffffffffffffff16815260200190815260200160002060010154101515610a7057602260008473ffffffffffffffffffffffffffffffffffffffff1673ffffffffffffffffffffffffffffffffffffffff168152602001908152602001600020600080820160006101000a81549073ffffffffffffffffffffffffffffffffffffffff0219169055600182016000905560028201600090556003820160006101000a81549060ff0219169055505082600160008573ffffffffffffffffffffffffffffffffffffffff1673ffffffffffffffffffffffffffffffffffffffff16815260200190815260200160002060006101000a81548173ffffffffffffffffffffffffffffffffffffffff021916908373ffffffffffffffffffffffffffffffffffffffff160217905550602560008154809291906001019190505550610b58565b6002602554811515610a7e57fe5b04602260008573ffffffffffffffffffffffffffffffffffffffff1673ffffffffffffffffffffffffffffffffffffffff16815260200190815260200160002060020154101515610b5757602260008473ffffffffffffffffffffffffffffffffffffffff1673ffffffffffffffffffffffffffffffffffffffff168152602001908152602001600020600080820160006101000a81549073ffffffffffffffffffffffffffffffffffffffff0219169055600182016000905560028201600090556003820160006101000a81549060ff021916905550505b5b600190505b92915050565b6000602260008373ffffffffffffffffffffffffffffffffffffffff1673ffffffffffffffffffffffffffffffffffffffff16815260200190815260200160002060030160009054906101000a900460ff1615610bc35760009050610d66565b60006025541415610c675781600160008473ffffffffffffffffffffffffffffffffffffffff1673ffffffffffffffffffffffffffffffffffffffff16815260200190815260200160002060006101000a81548173ffffffffffffffffffffffffffffffffffffffff021916908373ffffffffffffffffffffffffffffffffffffffff16021790555060256000815480929190600101919050555060019050610d66565b6080604051908101604052808373ffffffffffffffffffffffffffffffffffffffff168152602001600081526020016000815260200160011515815250602260008473ffffffffffffffffffffffffffffffffffffffff1673ffffffffffffffffffffffffffffffffffffffff16815260200190815260200160002060008201518160000160006101000a81548173ffffffffffffffffffffffffffffffffffffffff021916908373ffffffffffffffffffffffffffffffffffffffff160217905550602082015181600101556040820151816002015560608201518160030160006101000a81548160ff021916908315150217905550905050600190505b919050565b60226020528060005260406000206000915090508060000160009054906101000a900473ffffffffffffffffffffffffffffffffffffffff16908060010154908060020154908060030160009054906101000a900460ff16905084565b60236020528060005260406000206000915090508060000160009054906101000a900473ffffffffffffffffffffffffffffffffffffffff16908060010160009054906101000a900473ffffffffffffffffffffffffffffffffffffffff16908060020154908060030154908060040154905085565b600080602460008573ffffffffffffffffffffffffffffffffffffffff1673ffffffffffffffffffffffffffffffffffffffff16815260200190815260200160002060000160003373ffffffffffffffffffffffffffffffffffffffff1673ffffffffffffffffffffffffffffffffffffffff1681526020019081526020016000205490506000811115610ed55760009150611087565b602760008154600101919050819055905080602460008673ffffffffffffffffffffffffffffffffffffffff1673ffffffffffffffffffffffffffffffffffffffff16815260200190815260200160002060000160003373ffffffffffffffffffffffffffffffffffffffff1673ffffffffffffffffffffffffffffffffffffffff1681526020019081526020016000208190555060a0604051908101604052808573ffffffffffffffffffffffffffffffffffffffff1681526020013373ffffffffffffffffffffffffffffffffffffffff1681526020018481526020016000815260200160008152506023600083815260200190815260200160002060008201518160000160006101000a81548173ffffffffffffffffffffffffffffffffffffffff021916908373ffffffffffffffffffffffffffffffffffffffff16021790555060208201518160010160006101000a81548173ffffffffffffffffffffffffffffffffffffffff021916908373ffffffffffffffffffffffffffffffffffffffff160217905550604082015181600201556060820151816003015560808201518160040155905050600191505b5092915050565b6000602554905090565b6000806000602460008773ffffffffffffffffffffffffffffffffffffffff1673ffffffffffffffffffffffffffffffffffffffff16815260200190815260200160002060000160008673ffffffffffffffffffffffffffffffffffffffff1673ffffffffffffffffffffffffffffffffffffffff16815260200190815260200160002054915060008214156111315760009250611667565b3373ffffffffffffffffffffffffffffffffffffffff16600160003373ffffffffffffffffffffffffffffffffffffffff1673ffffffffffffffffffffffffffffffffffffffff16815260200190815260200160002060009054906101000a900473ffffffffffffffffffffffffffffffffffffffff1673ffffffffffffffffffffffffffffffffffffffff161415156111ce5760009250611667565b6023600083815260200190815260200160002090508315611202578060030160008154809291906001019190505550611217565b80600401600081548092919060010191905055505b600260255481151561122557fe5b04816003015410151561143c5773__IterableAccess________________________63fd58df7c6028888885600201546000604051602001526040518563ffffffff167c0100000000000000000000000000000000000000000000000000000000028152600401808581526020018473ffffffffffffffffffffffffffffffffffffffff1673ffffffffffffffffffffffffffffffffffffffff1681526020018373ffffffffffffffffffffffffffffffffffffffff1673ffffffffffffffffffffffffffffffffffffffff16815260200182815260200194505050505060206040518083038186803b151561131a57600080fd5b6102c65a03f4151561132b57600080fd5b505050604051805190505060236000838152602001908152602001600020600080820160006101000a81549073ffffffffffffffffffffffffffffffffffffffff02191690556001820160006101000a81549073ffffffffffffffffffffffffffffffffffffffff021916905560028201600090556003820160009055600482016000905550506000602460008873ffffffffffffffffffffffffffffffffffffffff1673ffffffffffffffffffffffffffffffffffffffff16815260200190815260200160002060000160008773ffffffffffffffffffffffffffffffffffffffff1673ffffffffffffffffffffffffffffffffffffffff16815260200190815260200160002081905550611662565b600260255481151561144a57fe5b04816004015410151561155d5760236000838152602001908152602001600020600080820160006101000a81549073ffffffffffffffffffffffffffffffffffffffff02191690556001820160006101000a81549073ffffffffffffffffffffffffffffffffffffffff021916905560028201600090556003820160009055600482016000905550506000602460008873ffffffffffffffffffffffffffffffffffffffff1673ffffffffffffffffffffffffffffffffffffffff16815260200190815260200160002060000160008773ffffffffffffffffffffffffffffffffffffffff1673ffffffffffffffffffffffffffffffffffffffff16815260200190815260200160002081905550611661565b80602360008481526020019081526020016000206000820160009054906101000a900473ffffffffffffffffffffffffffffffffffffffff168160000160006101000a81548173ffffffffffffffffffffffffffffffffffffffff021916908373ffffffffffffffffffffffffffffffffffffffff1602179055506001820160009054906101000a900473ffffffffffffffffffffffffffffffffffffffff168160010160006101000a81548173ffffffffffffffffffffffffffffffffffffffff021916908373ffffffffffffffffffffffffffffffffffffffff1602179055506002820154816002015560038201548160030155600482015481600401559050505b5b600192505b50509392505050565b600080600090505b60108110156116fb5760028160108110151561169057fe5b0160009054906101000a900473ffffffffffffffffffffffffffffffffffffffff1673ffffffffffffffffffffffffffffffffffffffff163373ffffffffffffffffffffffffffffffffffffffff1614156116ee576000915061175f565b8080600101915050611678565b336002602660008154809291906001019190505560108110151561171b57fe5b0160006101000a81548173ffffffffffffffffffffffffffffffffffffffff021916908373ffffffffffffffffffffffffffffffffffffffff160217905550600191505b5090565b600073__IterableAccess________________________63ac289acd60286000604051602001526040518263ffffffff167c01000000000000000000000000000000000000000000000000000000000281526004018082815260200191505060206040518083038186803b15156117d957600080fd5b6102c65a03f415156117ea57600080fd5b5050506040518051905090505b73__IterableAccess________________________6315b7c7686028836000604051602001526040518363ffffffff167c0100000000000000000000000000000000000000000000000000000000028152600401808381526020018281526020019250505060206040518083038186803b151561187357600080fd5b6102c65a03f4151561188457600080fd5b50505060405180519050156119c95773__IterableAccess________________________63998157396028836000604051602001526040518363ffffffff167c0100000000000000000000000000000000000000000000000000000000028152600401808381526020018281526020019250505060206040518083038186803b151561190f57600080fd5b6102c65a03f4151561192057600080fd5b505050604051805190505073__IterableAccess________________________634009d36f6028836000604051602001526040518363ffffffff167c0100000000000000000000000000000000000000000000000000000000028152600401808381526020018281526020019250505060206040518083038186803b15156119a757600080fd5b6102c65a03f415156119b857600080fd5b5050506040518051905090506117f7565b50565b6119d4611ae4565b6002601080602002604051908101604052809291908260108015611a43576020028201915b8160009054906101000a900473ffffffffffffffffffffffffffffffffffffffff1673ffffffffffffffffffffffffffffffffffffffff16815260200190600101908083116119f9575b5050505050905090565b60008173ffffffffffffffffffffffffffffffffffffffff16600160008473ffffffffffffffffffffffffffffffffffffffff1673ffffffffffffffffffffffffffffffffffffffff16815260200190815260200160002060009054906101000a900473ffffffffffffffffffffffffffffffffffffffff1673ffffffffffffffffffffffffffffffffffffffff16149050919050565b610200604051908101604052806010905b600073ffffffffffffffffffffffffffffffffffffffff16815260200190600190039081611af557905050905600a165627a7a723058209a624d63b98c2bc5b02cc0c30e84629a2238cc0ba5dd35dfe5c029c2e0c837d80029",
  "source": "pragma solidity ^0.4.2;\n\nimport \"./IterableAccess.sol\";\n\n\ncontract IotAuth {\n    mapping(address => uint) userKey;\n    mapping(address => address) users;\n    address[16] public devices;\n    bool[16][16] authorisedUsers;\n    mapping(address => VoteAddManager) public voteAddManager;\n    mapping(uint => VoteAccess) public voteAccessM;\n    mapping(address => UserList) vaKey; // vaKey[device].user[user] give back the key\n    uint nbrUser = 0;\n    uint nbrDevice = 0;\n    uint nbrVoteAccess = 0;\n\n    //event RegisterWorked();\n\n    struct UserList {\n        mapping(address => uint) keyIndex;\n    }\n    IterableAccess.itmap access;\n    \n    struct VoteAccess {    \n        address device;     // the device the person want access\n        address user;       // the person wanting access to log\n        uint accessTime;    // access wanted in minutes\n        uint yesVote;       // nbr of people that voted \"yes\"\n        uint noVote;        // nbr of people that voted \"no\"\n    }\n\n    struct VoteAddManager {\n        address manager;\n        uint yesVote;\n        uint noVote;\n        bool contains;\n    }\n\n    struct VoteRemoveManager {\n        address manager;\n        int yesVote;\n        uint noVote;\n    }\n    \n    function addManager(address user) public returns (bool worked) {\n        if (voteAddManager[user].contains) {\n            return false;\n        }\n        if (nbrUser == 0) {\n            users[user] = user;\n            nbrUser++;\n            return true;\n        }\n        voteAddManager[user] = VoteAddManager(user, 0, 0, true);\n        return true;\n    }\n\n    function voteAddManager(address user, bool yesVote) public returns (bool worked) {\n        if (!voteAddManager[user].contains) {\n            return false;\n        }\n        // check if msg.sender can vote\n        if (users[msg.sender] != msg.sender) {\n            return false;\n        }\n        if (yesVote) {\n            voteAddManager[user].yesVote++;\n        } else {\n            voteAddManager[user].noVote++;\n        }\n        if (voteAddManager[user].yesVote >= (nbrUser/2)) {\n            delete voteAddManager[user];\n            users[user] = user;\n            nbrUser++;\n            // userKey[user] = ++nbrUser;\n            // users[nbrUser] = user;\n        } else if (voteAddManager[user].noVote >= (nbrUser/2)) {\n            delete voteAddManager[user];\n        }\n        return true;\n    }\n\n    // function removeManager(address user) public returns (bool worked) {\n    //     if (!voteRemoveManager.contains(user)) {\n    //         return false;\n    //     }\n    //     voteRemoveManager[user] = VoteRemoveManager(user, 0, 0);\n    //     return true;\n    // }\n\n    // function voteRemoveManager(address user, bool yesVote) public returns (bool worked) {\n    //     if (!voteRemoveManager.contains(user)) {\n    //         return false;\n    //     }\n    //     if (yesVote) {\n    //         voteRemoveManager[user].yesVote++;\n    //     } else {\n    //         voteRemoveManager[user].noVote++;\n    //     }\n    //     if (voteRemoveManager[user].yesVote >= (nbrManager/2)) {\n    //         delete voteRemoveManager[user];\n    //         delete manager[user];\n    //     } else if (voteRemoveManager[user].noVote >= (nbrManager/2)) {\n    //         delete voteRemoveManager[user];\n    //     }\n    //     return true;\n    // }\n\n    function registerDevice() public returns (bool worked) {\n        for (uint index = 0; index < devices.length; index++) {\n            if (msg.sender == devices[index]) {\n                return false;\n            }\n        }\n        devices[nbrDevice++] = msg.sender;\n        return true;\n    }\n\n    function askAccess(address device, uint accesTime) public returns (bool worked) {\n        uint key = vaKey[device].keyIndex[msg.sender];\n        if (key > 0) {  // this user already asked for this device\n            return false;\n        }\n        key = ++nbrVoteAccess;\n        vaKey[device].keyIndex[msg.sender] = key;\n        voteAccessM[key] = VoteAccess(device, msg.sender, accesTime, 0, 0);\n        // self.data[key].keyIndex = keyIndex + 1;\n        // self.keys[keyIndex].key = key;\n        // self.size++;\n        //RegisterWorked();\n        return true;\n        \n    }\n\n    function voteAccess(address device, address user, bool yesVote) public returns (bool worked) {\n        uint keyIndex = vaKey[device].keyIndex[user];\n        if (keyIndex == 0) { //this vote doesn't exist\n            return false;\n        }\n        if (users[msg.sender] != msg.sender) { //this user is not allowed to vote\n            return false;\n        }\n        VoteAccess storage newVote = voteAccessM[keyIndex];\n        if (yesVote) {\n            newVote.yesVote++;\n        } else {\n            newVote.noVote++;\n        }\n        if (newVote.yesVote >= (nbrUser/2)) {\n            IterableAccess.insert(access, device, user, newVote.accessTime);\n            delete voteAccessM[keyIndex];\n            vaKey[device].keyIndex[user] = 0;\n        } else if (newVote.noVote >= (nbrUser/2)) {\n            delete voteAccessM[keyIndex];\n            vaKey[device].keyIndex[user] = 0;\n        } else {\n            voteAccessM[keyIndex] = newVote;\n        }\n        return true;\n        // if (worked) {\n        //     VoteAccess voteAccesVal = IterableVoteAccess.get(voteAcces, key);\n        //     if (voteAccesVal.yesVote >= (nbrManager/2)) {\n        //         IterableAccess.insert(access, key, voteAccesVal.ac);\n        //         IterableVoteAcces.remove(voteAcces, key);\n        //     } else if (voteAccesVal.noVote >= (nbrManager/2)) {\n        //         IterableVoteAcces.remove(voteAcces, key);\n        //     }\n        // }\n    }\n\n    // function getManagers() public view returns (address[16]) {\n    //     return users;\n    // }\n\n    function isManager(address user) public view returns (bool) {\n        return (users[user] == user);\n    }\n\n    function getNbrOfManager() public view returns (uint) {\n        return nbrUser;\n    }\n\n    function getDevices() public view returns (address[16]) {\n        return devices;\n    }\n\n    function getDevice(uint index) public view returns (address) {\n        return devices[index];\n    }\n\n    // decrement all remaining time from 10\n    function refreshTime() public {\n        for (var i = IterableAccess.iterate_start(access); \n        IterableAccess.iterate_valid(access, i); \n        i = IterableAccess.iterate_next(access, i)) {\n            IterableAccess.decrement(access, i);\n        }\n    }    \n\n    function hasAccess(address device, address user) public view returns (bool) {\n        return IterableAccess.contains(access, device, user);\n    }\n}",
  "sourcePath": "/home/olivier/Documents/projetSemestre1/truffleTutorial/iot1/contracts/IotAuth.sol",
  "compiler": {
    "name": "solc",
    "version": "0.4.18+commit.9cf6e910.Emscripten.clang"
  },
  "schemaVersion": "1.0.1",
  "updatedAt": "2018-01-29T19:35:57.093Z"
}