{
  "contractName": "IterableAccess",
  "abi": [
    {
      "constant": true,
      "inputs": [
        {
          "name": "self",
          "type": "IterableAccess.itmap storage"
        },
        {
          "name": "keyIndex",
          "type": "uint256"
        }
      ],
      "name": "iterate_valid",
      "outputs": [
        {
          "name": "",
          "type": "bool"
        }
      ],
      "payable": false,
      "stateMutability": "view",
      "type": "function"
    },
    {
      "constant": true,
      "inputs": [
        {
          "name": "self",
          "type": "IterableAccess.itmap storage"
        },
        {
          "name": "keyIndex",
          "type": "uint256"
        }
      ],
      "name": "iterate_next",
      "outputs": [
        {
          "name": "r_keyIndex",
          "type": "uint256"
        }
      ],
      "payable": false,
      "stateMutability": "view",
      "type": "function"
    },
    {
      "constant": true,
      "inputs": [
        {
          "name": "self",
          "type": "IterableAccess.itmap storage"
        },
        {
          "name": "device",
          "type": "address"
        },
        {
          "name": "user",
          "type": "address"
        }
      ],
      "name": "contains",
      "outputs": [
        {
          "name": "",
          "type": "bool"
        }
      ],
      "payable": false,
      "stateMutability": "view",
      "type": "function"
    },
    {
      "constant": false,
      "inputs": [
        {
          "name": "self",
          "type": "IterableAccess.itmap storage"
        },
        {
          "name": "keyIndex",
          "type": "uint256"
        }
      ],
      "name": "decrement",
      "outputs": [
        {
          "name": "",
          "type": "bool"
        }
      ],
      "payable": false,
      "stateMutability": "nonpayable",
      "type": "function"
    },
    {
      "constant": true,
      "inputs": [
        {
          "name": "self",
          "type": "IterableAccess.itmap storage"
        }
      ],
      "name": "iterate_start",
      "outputs": [
        {
          "name": "keyIndex",
          "type": "uint256"
        }
      ],
      "payable": false,
      "stateMutability": "view",
      "type": "function"
    },
    {
      "constant": false,
      "inputs": [
        {
          "name": "self",
          "type": "IterableAccess.itmap storage"
        },
        {
          "name": "device",
          "type": "address"
        },
        {
          "name": "user",
          "type": "address"
        },
        {
          "name": "accessTime",
          "type": "uint256"
        }
      ],
      "name": "insert",
      "outputs": [
        {
          "name": "replaced",
          "type": "bool"
        }
      ],
      "payable": false,
      "stateMutability": "nonpayable",
      "type": "function"
    }
  ],
  "bytecode": "0x6060604052341561000f57600080fd5b610c588061001e6000396000f300606060405260043610610078576000357c0100000000000000000000000000000000000000000000000000000000900463ffffffff16806315b7c7681461007d5780634009d36f146100b6578063781bdae8146100eb5780639981573914610159578063ac289acd14610192578063fd58df7c146101be575b600080fd5b61009c6004808035906020019091908035906020019091905050610235565b604051808215151515815260200191505060405180910390f35b6100d56004808035906020019091908035906020019091905050610249565b6040518082815260200191505060405180910390f35b61013f600480803590602001909190803573ffffffffffffffffffffffffffffffffffffffff1690602001909190803573ffffffffffffffffffffffffffffffffffffffff169060200190919050506102b1565b604051808215151515815260200191505060405180910390f35b610178600480803590602001909190803590602001909190505061035a565b604051808215151515815260200191505060405180910390f35b6101a86004808035906020019091905050610505565b6040518082815260200191505060405180910390f35b61021b600480803590602001909190803573ffffffffffffffffffffffffffffffffffffffff1690602001909190803573ffffffffffffffffffffffffffffffffffffffff16906020019091908035906020019091905050610538565b604051808215151515815260200191505060405180910390f35b600082600101805490508210905092915050565b600081806001019250505b8260010180549050821080156102965750826001018281548110151561027657fe5b906000526020600020906003020160020160009054906101000a900460ff165b156102a8578180600101925050610254565b81905092915050565b6000808460000160008573ffffffffffffffffffffffffffffffffffffffff1673ffffffffffffffffffffffffffffffffffffffff16815260200190815260200160002060000160008473ffffffffffffffffffffffffffffffffffffffff1673ffffffffffffffffffffffffffffffffffffffff168152602001908152602001600020600001549050600081111561034d5760019150610352565b600091505b509392505050565b600080600080856001018581548110151561037157fe5b9060005260206000209060030201600001925085600001600084600060028110151561039957fe5b0160009054906101000a900473ffffffffffffffffffffffffffffffffffffffff1673ffffffffffffffffffffffffffffffffffffffff1673ffffffffffffffffffffffffffffffffffffffff168152602001908152602001600020600001600084600160028110151561040957fe5b0160009054906101000a900473ffffffffffffffffffffffffffffffffffffffff1673ffffffffffffffffffffffffffffffffffffffff1673ffffffffffffffffffffffffffffffffffffffff1681526020019081526020016000206001019150600a8260010160010160008282540392505081905590506000811115156104f8576104f68684600060028110151561049e57fe5b0160009054906101000a900473ffffffffffffffffffffffffffffffffffffffff168560016002811015156104cf57fe5b0160009054906101000a900473ffffffffffffffffffffffffffffffffffffffff166108c4565b505b6001935050505092915050565b6000610531827fffffffffffffffffffffffffffffffffffffffffffffffffffffffffffffffff610249565b9050919050565b6000610542610aac565b600060408051908101604052808773ffffffffffffffffffffffffffffffffffffffff1673ffffffffffffffffffffffffffffffffffffffff1681526020018673ffffffffffffffffffffffffffffffffffffffff1673ffffffffffffffffffffffffffffffffffffffff1681525091508660000160008773ffffffffffffffffffffffffffffffffffffffff1673ffffffffffffffffffffffffffffffffffffffff16815260200190815260200160002060000160008673ffffffffffffffffffffffffffffffffffffffff1673ffffffffffffffffffffffffffffffffffffffff16815260200190815260200160002060000154905060408051908101604052808673ffffffffffffffffffffffffffffffffffffffff16815260200160408051908101604052808973ffffffffffffffffffffffffffffffffffffffff168152602001878152508152508760000160008873ffffffffffffffffffffffffffffffffffffffff1673ffffffffffffffffffffffffffffffffffffffff16815260200190815260200160002060000160008773ffffffffffffffffffffffffffffffffffffffff1673ffffffffffffffffffffffffffffffffffffffff16815260200190815260200160002060010160008201518160000160006101000a81548173ffffffffffffffffffffffffffffffffffffffff021916908373ffffffffffffffffffffffffffffffffffffffff16021790555060208201518160010160008201518160000160006101000a81548173ffffffffffffffffffffffffffffffffffffffff021916908373ffffffffffffffffffffffffffffffffffffffff16021790555060208201518160010155505090505060008111156107cb57600192506108ba565b8660010180548091906001016107e19190610ae9565b9050600181018760000160008873ffffffffffffffffffffffffffffffffffffffff1673ffffffffffffffffffffffffffffffffffffffff16815260200190815260200160002060000160008773ffffffffffffffffffffffffffffffffffffffff1673ffffffffffffffffffffffffffffffffffffffff1681526020019081526020016000206000018190555081876001018281548110151561088157fe5b90600052602060002090600302016000019060026108a0929190610b1b565b508660020160008154809291906001019190505550600092505b5050949350505050565b6000808460000160008573ffffffffffffffffffffffffffffffffffffffff1673ffffffffffffffffffffffffffffffffffffffff16815260200190815260200160002060000160008473ffffffffffffffffffffffffffffffffffffffff1673ffffffffffffffffffffffffffffffffffffffff16815260200190815260200160002060000154905060008114156109605760009150610aa4565b8460000160008573ffffffffffffffffffffffffffffffffffffffff1673ffffffffffffffffffffffffffffffffffffffff16815260200190815260200160002060000160008473ffffffffffffffffffffffffffffffffffffffff1673ffffffffffffffffffffffffffffffffffffffff16815260200190815260200160002060008082016000905560018201600080820160006101000a81549073ffffffffffffffffffffffffffffffffffffffff021916905560018201600080820160006101000a81549073ffffffffffffffffffffffffffffffffffffffff0219169055600182016000905550505050505060018560010160018303815481101515610a6657fe5b906000526020600020906003020160020160006101000a81548160ff0219169083151502179055508460020160008154809291906001900391905055505b509392505050565b60408051908101604052806002905b600073ffffffffffffffffffffffffffffffffffffffff16815260200190600190039081610abb5790505090565b815481835581811511610b1657600302816003028360005260206000209182019101610b159190610b98565b5b505050565b8260028101928215610b87579160200282015b82811115610b865782518260006101000a81548173ffffffffffffffffffffffffffffffffffffffff021916908373ffffffffffffffffffffffffffffffffffffffff16021790555091602001919060010190610b2e565b5b509050610b949190610bdb565b5090565b610bd891905b80821115610bd45760008082016000610bb79190610c1e565b6002820160006101000a81549060ff021916905550600301610b9e565b5090565b90565b610c1b91905b80821115610c1757600081816101000a81549073ffffffffffffffffffffffffffffffffffffffff021916905550600101610be1565b5090565b90565b5060008155600101600090555600a165627a7a723058208e0c8903f4a7df5db29a1dce4d17603d43c981fee83c4ac6e10310da023d25150029",
  "source": "pragma solidity ^0.4.2;\n\n\nlibrary IterableAccess {\n    struct Access {\n        address user;\n        DeviceAccess deviceAccess;\n    }\n    \n    struct DeviceAccess {\n        address device;\n        uint remainingTime;\n    }\n\n    struct itmap {\n        mapping(address => UserIndex) data;\n        KeyFlag[] keys;\n        uint size;\n    }\n\n    struct UserIndex {\n        mapping(address => IndexValue) data;\n        // uint keyIndex;\n        // Access value;\n    }\n    \n    struct IndexValue {\n        uint keyIndex;\n        Access value;\n    }\n\n    // use to know if the element is deleted\n    struct KeyFlag {\n        address[2] key; // key={device, user}\n        bool deleted;\n    }\n\n\n\n    \n    function insert(itmap storage self, address device, address user, uint accessTime) public returns (bool replaced) {\n        address[2] memory key = [device, user];\n        uint keyIndex = self.data[device].data[user].keyIndex;\n        self.data[device].data[user].value = Access(user, DeviceAccess(device, accessTime));\n        if (keyIndex > 0) {\n            return true;\n        } else {\n            keyIndex = self.keys.length++;\n            self.data[device].data[user].keyIndex = keyIndex + 1;\n            self.keys[keyIndex].key = key;\n            self.size++;\n            return false;\n        }\n    }\n\n    function decrement(itmap storage self, uint keyIndex) public returns (bool) {\n        var key = self.keys[keyIndex].key;\n        var value = self.data[key[0]].data[key[1]].value;\n        var newTime = value.deviceAccess.remainingTime -= 10;\n        if (newTime <= 0) {\n            remove(self, key[0], key[1]);\n        }\n        return true;\n    }\n\n\n    function remove (itmap storage self, address device, address user) private returns (bool success) {\n        uint keyIndex = self.data[device].data[user].keyIndex;\n        if (keyIndex == 0) {\n            return false;\n        }\n        delete self.data[device].data[user];\n        self.keys[keyIndex - 1].deleted = true;\n        self.size--;\n    }\n\n    function contains (itmap storage self, address device, address user) public view returns (bool) {\n        uint keyIndex = self.data[device].data[user].keyIndex;\n        if (keyIndex > 0) {\n            return true;\n        } else {\n            return false;\n        }\n    }\n\n    function iterate_start (itmap storage self) public view returns (uint keyIndex) {\n        return iterate_next(self, uint(-1));\n    }\n\n    function iterate_valid (itmap storage self, uint keyIndex) public view returns (bool) {\n        return keyIndex < self.keys.length;\n    }\n\n    function iterate_next (itmap storage self, uint keyIndex) public view returns (uint r_keyIndex) {\n        keyIndex++;\n        while (keyIndex < self.keys.length && self.keys[keyIndex].deleted) {\n            keyIndex++;\n        }\n        return keyIndex;\n    }\n\n    function get (itmap storage self, address device, address user) private view returns (Access value) {\n        return self.data[device].data[user].value;\n    }\n\n\n    function iterate_get(itmap storage self, uint keyIndex) private view returns (address[2] key, Access value) {\n        key = self.keys[keyIndex].key;\n        value = self.data[key[0]].data[key[1]].value;\n    }\n\n    // function check_time (itmap storage self) private {\n\n    // }\n\n}",
  "sourcePath": "/home/olivier/Documents/projetSemestre1/truffleTutorial/iot1/contracts/IterableAccess.sol",
  "compiler": {
    "name": "solc",
    "version": "0.4.18+commit.9cf6e910.Emscripten.clang"
  },
  "schemaVersion": "1.0.1",
  "updatedAt": "2018-01-29T18:34:40.062Z"
}